:1000000019C028C0E1C026C025C024C023C01ECC12
:1000100021C020C01FC01EC01DC01CC0B8C01AC057
:1000200019C018C017C03030302E545854002E5705
:100030004156000011241FBECFE5D2E0DEBFCDBF88
:1000400011E0A0E6B0E001C01D92A33DB107E1F7C9
:10005000E0D047CDD5CFA895019728F0E0EAFFE0A2
:100060003197F1F7F8CF089572E07A95F1F701979B
:10007000D9F7A895089584E089BB89BB89BB89BB62
:1000800089BB89BB89BB89BB89BB89BB89BB89BB50
:1000900089BB89BB89BB89BB00008FB1089594E0FF
:1000A0006BB378E087FB61F96BBB880F99BB99BB99
:1000B0007A95C1F7D99A0895DC01FB0122E032E07C
:1000C0002E1B3F0B241B350B84E0319788F089BB36
:1000D00089BB89BB89BB89BB89BB89BB89BB89BB00
:1000E00089BB89BB89BB89BB89BB89BB89BBEDCF78
:1000F000109731F0C0DF8D9341505040D9F732C096
:1001000054995695549947955199569551994795B3
:1001100060916600A1E8B0E0A60FB11D8091920148
:100120008C3FE0F75499A7DFA6DF54998058F82F49
:10013000519B07C054999FDF9EDF54998058F80F58
:10014000F795EF2FE095ED93FD93F8948091920150
:100150008E5F8093920178946E5F41505040D1F64B
:100160006093660084E089BB89BB89BB89BB89BB7E
:1001700089BB89BB89BB89BB89BB89BB89BB89BB5F
:1001800089BB89BB89BB2150304069F708958F93A3
:100190008FB78F93EF93FF9380919201825070F00D
:1001A00080939201E0916700FF27EF57FF4F819105
:1001B0008DBD81918CBDE158E0936700FF91EF9177
:1001C0008F918FBF8F9118951895A89589B396B385
:1001D0008870806F92959770892B809590916000C0
:1001E00080936000981751F480916100891731F075
:1001F000909361009093910181E0089580E00895CB
:10020000C29881E090E027DFC29A83E090E023DF8C
:100210000895A0E0B0E0EEE0F1E025CCA89514BE92
:100220008EE081BD85B7877E806185BF88E083BD14
:1002300080E782BD8AE88BBB86E88ABB80EF88BBFB
:100240008FE087BBC298DCDFC29881E090E003DFDB
:10025000C29A81E090E0FFDED3DFD2DFC29883E074
:1002600090E0F9DE80E4E6DA78941092910100E003
:1002700020E2222E80919101882309F039C083B7B2
:10028000882319F013BE10BE1FBC1AE08AE090E06C
:10029000E2DE9BDF81E991E09093C3018093C2018C
:1002A000115021F080919101882381F38091910177
:1002B0008823F1F4F89498E89BBB20EF28BB2BBE71
:1002C00068E161BD11BC85B7806285BF789488956F
:1002D00085B78F7D85BFA8958EE081BD1BBE2ABEE8
:1002E00091EF98BB8AE090E0B6DE2BE02BBBCDCF40
:1002F00083E991E092D8892B09F00AC281E890E065
:1003000066E270E0E7DB81E890E008D7892B61F4D2
:1003100080E890E061E070E04EE750E053D78091D4
:100320008000805380938000309091018091800004
:10033000823010F010929101832D6AE066DB905DAF
:1003400090938300832D61DB282F5FDB905D90937A
:100350008200822F5ADB59DB905D9093810084E804
:1003600090E06EE270E0B6DB81E890E0D7D68330B3
:10037000910511F403E0BDC1892B09F0DBC181E8CF
:1003800090E06CE070E04EE750E01CD7892B09F05C
:10039000C5C180917E0090917F000C9709F0C4C187
:1003A0008091890090918A00A0918B00B0918C007F
:1003B00087559144A645B54409F0B6C1DD2481E8CE
:1003C00090E068E070E04EE750E0FCD6892B09F041
:1003D000A5C180917E0090917F00089709F0A4C18B
:1003E000E0908500F09086000091870010918800D1
:1003F0008091810090918200A0918300B09184004F
:100400008C3429E4920723E5A20724E5B20709F416
:10041000B4C08D3469E4960763E5A60764E5B607C2
:1004200078F486362DE6920724E7A20720E2B20789
:10043000B9F084549944A345B04509F075C19DC0F5
:10044000843621E6920724E7A20721E6B20709F4E1
:1004500061C086569146A346B44709F065C18DC078
:10046000C70181709070892B29F00894E11CF11C60
:10047000011D111DD801C7014097A109B10981379C
:100480009105A105B10508F04FC181E890E0B701E1
:100490004EE750E097D6892B09F040C180917E004D
:1004A00090917F00A0E0B0E08E159F05A007B107F6
:1004B00009F03AC180918100813009F035C1D090B6
:1004C0008300DAB890918F00983019F0903109F0DC
:1004D0002BC18AB1892B8AB994FDDD0C209185004E
:1004E000309186004091870050918800DA01C9015F
:1004F00080549F41A040B04081549C49A040B040EE
:1005000008F012C160E874E88EE190E08ADA2150C8
:1005100023BB55CFDD2009F407C180E0E81684E055
:10052000F80680E0080780E0180708F4FDC08D2D6C
:1005300090E001979C01442737FD4095542FDA0144
:10054000C9018E219F21A023B1230097A105B105E8
:1005500009F0EAC08091A9019091AA01A091AB0194
:10056000B091AC01282339234A235B23211531059F
:100570004105510509F0D8C01DC0C70181709070B8
:10058000892B29F00894E11CF11C011D111D80919B
:10059000A9019091AA01A091AB01B091AC01E80E24
:1005A000F91E0A1F1B1FC801B701B4D2892B09F419
:1005B00006CFB4C095E0E916F1040105110510F469
:1005C0000E2D95C04090A9015090AA016090AB01FA
:1005D0007090AC01C29A83B7882389F4109292017B
:1005E000109267001092660086E089BD83EA80BFA2
:1005F00081E08FBD85BB82E083BF80E189BF8091B0
:10060000A9019091AA01917060E072E0681B790BDA
:1006100080E090E04EE750E0D5D5892B09F05BC033
:1006200080917E0090917F00A0E0B0E057016801CA
:10063000A81AB90ACA0ADB0A21E0A21624E0B20607
:1006400020E0C20620E0D20618F0C0E0D4E001C0ED
:10065000E50180E090E0BE014EE750E0B3D5809028
:100660007E0090907F00C815D905A9F5AEDD8823DE
:10067000B9F080918000823061F0833029F0909150
:100680009101813059F408C080919101882329F5A6
:1006900007C01092910104C0992311F09315E9F459
:1006A00080917E0090917F008050944021F4C4019D
:1006B000A0E0B0E0BDCF80919101882381F08091CE
:1006C0008000823060F4C301B20124D2892B09F486
:1006D00096CF03E005C002E003C001E001C000E0E6
:1006E000809192018823E1F780E88DBD8CBD0230B6
:1006F00078F0102F88EC90E0AEDCC29A84E690E0AF
:10070000AADCC2981150B1F788EE93E0A4DC03C0D4
:10071000013009F4AFCD10929101ACCD92E0E92EF9
:10072000F12C012D112D4CCF84E0E82EF12C012D60
:10073000112D46CF02E0DDCFA0E0B0E0E1EAF3E02A
:100740009CC96C01C0916200D0916300FC011182D0
:100750001082248135814681578121303105410540
:10076000510509F45BC08E819F81A885B985281742
:1007700039074A075B0708F051C0211531054105CB
:10078000510539F48881833021F42E853F854889CD
:100790005989F60120873187428753872115310512
:1007A0004105510579F18EEFE82E8FEFF82E8FEF8E
:1007B000082F8FEF182FE20EF31E041F151F8E81D6
:1007C0009F81A885B9850297A109B109E816F906A4
:1007D0000A071B0728F020E030E040E050E016C098
:1007E0002A8130E040E050E0C801B701F5D89B0114
:1007F000AC018A899B89AC89BD89280F391F4A1FA2
:100800005B1F04C02E853F8548895989F6012487DE
:1008100035874687578720E030E002C021E030E08E
:10082000C901CDB7DEB7E8E044C9A4E0B0E0EAE131
:10083000F4E01DC94B015C016090620070906300A0
:1008400082E088169104A104B10408F4B0C0F30159
:1008500086819781A085B18588169906AA06BB0670
:1008600008F0A5C08081823009F45DC0833009F4AE
:1008700078C0813009F09BC0C40196958795880D9A
:10088000991D9C013170892F992786956C01EE2462
:10089000FF24F3014285538564857585CE01019659
:1008A000F1E02F3F3F0749F0C40ED51EE61EF71EAC
:1008B000B701A60102E010E01DC04C0D5D1D6E1DCC
:1008C0007F1D2FEF31E001E010E0E8D6892B09F021
:1008D0006EC0F30142855385648575854F5F5F4F18
:1008E0006F4F7F4F4C0D5D1D6E1D7F1DCE0102961B
:1008F00020E030E0D3D6892B09F059C069817A8194
:10090000C40181709070892B39F0A4E076956795C9
:10091000AA95E1F79B0122C09B0140E050E03F70A7
:100920004070507048C077276B2D5A2D492DF30128
:1009300082859385A485B585480F591F6A1F7B1F43
:1009400094013070220F331FCE01019602E010E0B7
:10095000A5D6892B61F589819A819C0140E050E000
:100960002AC0B501A40127E076956795579547956C
:100970002A95D1F7F30182859385A485B585480F23
:10098000591F6A1F7B1F94012F773070220F331F6E
:10099000220F331FCE01019604E010E07FD6892B91
:1009A00031F429813A814B815C815F7004C021E080
:1009B00030E040E050E0B901CA012496EEE073C88F
:1009C000A0E0B0E0E5EEF4E056C85C01C091620042
:1009D000D0916300FC01C080D1800894C11CD11C5F
:1009E000C114D10409F48FC0248535854685578507
:1009F000211531054105510509F485C0C6018F70E7
:100A00009070892B09F079C02F5F3F4F4F4F5F4F98
:100A1000248735874687578740855185628573854A
:100A2000411551056105710539F48C819D81C81608
:100A3000D90608F462C067C08A8190E001979601E8
:100A4000E4E036952795EA95E1F782239323892BF5
:100A500009F053C0CB01BA01E8DE9B01AC01623062
:100A600071058105910518F421E030E04EC08E81BA
:100A70009F81A885B985281739074A075B0708F0C1
:100A800042C0F5012087318742875387C0916200B9
:100A9000D09163008EEFE82E8FEFF82E8FEF082FA6
:100AA0008FEF182FE20EF31E041F151F8E819F81FA
:100AB000A885B9850297A109B109E816F9060A07C0
:100AC0001B0728F020E030E040E050E011C02A8110
:100AD00030E040E050E0C801B7017ED79B01AC0197
:100AE0008A899B89AC89BD89280F391F4A1F5B1FE2
:100AF000F5012487358746875787F501D182C08263
:100B000020E030E002C023E030E0C901CDB7DEB71D
:100B1000EAE0CDC7A0E0B0E0EFE8F5E0A4C7E82F39
:100B2000C0916200D0916300209719F426E030E074
:100B300001C1898180FD03C025E030E0FBC0EA8C63
:100B4000FB8C0C8D1D8D4E2F592FCB01DA013C01F2
:100B50004D01E614F7040805190510F437014801A2
:100B6000EE88FF88088D198D1E8A1F8A188E198EAF
:100B7000611471048104910409F4D6C08A81A82EFD
:100B8000BB24CC24DD24B9E0AA0CBB1CCC1CDD1C8E
:100B9000BA95D1F7E114F10401051105A1F117018E
:100BA000280108942108310841085108C401B30103
:100BB0006150704080409040A601950132D7790184
:100BC0008A01C201B101A60195012BD7E216F306F5
:100BD00004071507C0F088279927DC018A199B09AB
:100BE000AC09BD0982219321A421B5218E8B9F8B55
:100BF000A88FB98F681A790A8A0A9B0A2AA13BA191
:100C00004CA15DA132C02E8D3F8D48A159A12AA3D0
:100C10003BA34CA35DA329C0CA01B90106DE9B0119
:100C2000AC01623071058105910508F480C08E81A8
:100C30009F81A885B985281739074A075B0708F0FF
:100C400076C02AA33BA34CA35DA38E899F89A88D60
:100C5000B98D8A0D9B1DAC1DBD1D8E8B9F8BA88FE2
:100C6000B98F6A187B088C089D08A614B704C804BD
:100C7000D90490F2EE88FF88088D198DE60CF71CD8
:100C8000081D191DEE8AFF8A088F198F8090620057
:100C900090906300AEEFAA2EAFEFBA2EAFEFCA2E40
:100CA000AFEFDA2EA20EB31EC41ED51EF40186814C
:100CB0009781A085B1850297A109B109A816B90647
:100CC000CA06DB06A0F5228130E040E050E0C60114
:100CD000B50182D69B01AC01F40182899389A48974
:100CE000B589280F391F4A1F5B1F211531054105A2
:100CF0005105E9F0F9E016950795F794E794FA9510
:100D0000D1F78A8190E00197AA2797FDA095BA2F85
:100D1000E822F9220A231B232E0D3F1D401F511FDD
:100D20002EA33FA348A759A720E030E003C01982B3
:100D300021E030E0C901CDB7DEB7E2E1B0C6ACE2F8
:100D4000B0E0E4EAF6E097C67C016B0180916200B6
:100D500090916300892B19F426E030E0B6C0CE01F3
:100D60000196D70113969C938E9312976115710586
:100D700041F023E030E08DE0A82EB12CAC0EBD1E7A
:100D800028C0C701D9DC9C01A0C0F70120813181B6
:100D90002F70307015E0220F331F1A95E1F7C5014F
:100DA00000E210E07BD4892B19F021E030E020C074
:100DB0009D85992309F48DC0888D953E29F09E323A
:100DC00019F08F7383FF20C0C701FADD9C010097E3
:100DD00079F4D7011C964D915D916D917C911F978F
:100DE000411551056105710581F62115310561F047
:100DF000F70114861586168617862330310521F0F3
:100E00002115310509F061C09601275F3F4FF701B9
:100E100084859585A685B7850097A105B10509F458
:100E200043C0FE013D96AE014B5E5F4F8081803234
:100E300051F0853009F485EED9018D939D013196ED
:100E4000E417F50799F78D89803299F08EE2F90160
:100E500081939F01FE017596AE01485E5F4F8081D0
:100E6000803239F0D9018D939D013196E417F50751
:100E7000B1F7888DF6018087FE013D96448D558D32
:100E8000668D778DD6014D935D936D937C9313970B
:100E9000808D918D15969C938E9314978689978952
:100EA00017969C938E931697F9011082C70188DDDF
:100EB0009C018330910549F4D7011C961D921D9227
:100EC0001D921C921F9720E030E0C901AC96EAE029
:100ED000EEC523E030E08CCFA0E0B0E0E1E7F7E042
:100EE000C5C57C015B016A0103C00894C11CD11C0B
:100EF000D6018C918032C9F38F3219F40894C11C49
:100F0000D11CF7011482158216821782D6018C91AA
:100F1000813230F4C70110DCEC01F5011082A6C06B
:100F2000A0E25A2E66246394FBE08F2E912C8A0C4B
:100F30009B1CF701A281B381FD01CD010B9601C07D
:100F40005192E817F907E1F720E0772438E002C072
:100F500028E03BE0F601E70DF11D9081739491329A
:100F6000B0F09F32A1F09E3211F0231728F03830F4
:100F700071F49E3269F30BC0892F81568A3108F4CF
:100F80009052FD01E20FF11D90832F5FE3CF1B967E
:100F90001C921B97913210F41B966C92C701CCDB0C
:100FA000EC010097B1F5D7011C964D915D916D91C3
:100FB0007C911F972D913C912F703070E5E0220FAE
:100FC000331FEA95E1F7C50100E210E067D3892BF2
:100FD00019F081E090E01CC0F5018081882309F4BC
:100FE0004AC0D4018C9183FD0FC0F701A281B38167
:100FF000F501E815F90509F441C090818C91981725
:1010000019F431961196F5CFC701DADC009759F241
:10101000EC01C330D10551F5D7011296ED91FC9149
:1010200013978385882301F121C0F401808184FF17
:101030001BC0C70CD11CD50154968D919C9155971E
:10104000A0E0B0E0DC0199278827F501228D338DDF
:1010500040E050E0822B932BA42BB52BF701848327
:101060009583A683B78365CFC4E0D0E0CE01CDB72A
:10107000DEB7EFE017C5C3E0D0E0CBCFD7011296C3
:10108000ED91FC9113978385882379F2EFCFACE241
:10109000B0E0ECE4F8E0F3C48C01AB0180916200B5
:1010A00090916300892B19F426E030E033C0CE0123
:1010B0000196F801938382833DE0E32EF12CEC0E40
:1010C000FD1EC801B70108DF9C010097F1F48D8572
:1010D0008823C1F0888D84FF1BC0F701848995891E
:1010E000A0E0B0E0DC0199278827228D338D40E015
:1010F00050E0822B932BA42BB52BF801848395838E
:10110000A683B783C80118DB9C012330310511F495
:1011100024E030E0C901AC96E6E0CDC4ACE3B0E039
:10112000E3E9F8E0ACC4AC01009162001091630007
:101130000115110519F466E070E040C0F801118254
:10114000CE010196988B8F876DE1E62EF12CEC0E87
:10115000FD1ECE010D96B701BFDEBC01009771F5F3
:101160008D8D882349F188A584FD26C0F7018489E7
:101170009589A0E0B0E0DC0199278827228D338D86
:1011800040E050E0822B932BA42BB52BF801868FE7
:10119000978FA0A3B1A3F701848D958DA68DB78DF0
:1011A000F801828F938FA48FB58F168A178A108EBD
:1011B000118E81E0818302C063E070E0CB01EC9688
:1011C000E6E079C4A0E0B0E0E7EEF8E04EC43C0110
:1011D0006B014A01C0916200D0916300FA01118253
:1011E0001082209719F426E030E0CAC0898180FD82
:1011F00003C025E030E0C4C02A8D3B8D4C8D5D8D51
:101200008E899F89A88DB98D281B390B4A0B5B0BE2
:10121000CB01A0E0B0E0281739074A075B0708F4C4
:1012200069015301412CE2E05E2EA0C02E893F8966
:10123000488D598DDA01C9019170A070B070009786
:10124000A105B10509F05EC0DA01C90179E0B695E2
:10125000A795979587957A95D1F7FA80FA94F82211
:10126000C9F4211531054105510529F46E8D7F8D95
:1012700088A199A105C06AA17BA18CA19DA1D5DA05
:10128000623071058105910508F477C06AA37BA3DC
:101290008CA39DA300916200109163002AA13BA141
:1012A0004CA15DA12250304040405040F801868161
:1012B0009781A085B1850297A109B109281739073F
:1012C0004A075B0708F059C0628170E080E090E057
:1012D00083D39B01AC01F80182899389A489B589E4
:1012E000280F391F4A1F5B1F211531054105510584
:1012F00009F443C02F0D311D411D511D2EA33FA3E5
:1013000048A759A72E893F893170C201821B930BD0
:1013100076018C159D0508F47C016114710419F4A3
:1013200080E090E001C0C5014EA15FA168A579A54C
:101330008701B4D1892B09F5C701A0E0B0E02E895F
:101340003F89488D598D280F391F4A1F5B1F2E8BEF
:101350003F8B488F598FAE0CBF1CCE18DF08F401AD
:10136000808191818E0D9F1D91838083C114D10452
:1013700009F05CCF20E030E003C0198221E030E0CA
:10138000C901CDB7DEB7E0E18CC3A0E0B0E0EAEC84
:10139000F9E071C3B82EA92E6A017B012EEF31E06E
:1013A00002E010E07BD1892B11F023E031C0CB2D7E
:1013B000DA2D8881998185559A4A11F022E028C05A
:1013C0008B2D9A2DB701A60126E330E002E010E054
:1013D00065D1892B39F4888199818654914411F41F
:1013E00020E016C08B2D9A2DB701A60122E530E032
:1013F00002E010E053D1892B11F021E009C020E078
:10140000888199818654914409F421E081E028275C
:10141000822FCDB7DEB7EAE04AC3A4E2B0E0E2E152
:10142000FAE025C35C0110926300109262000097FD
:1014300009F4E6C063D180FF03C022E030E0E8C0D9
:101440004E010894811C911CC40140E050E060E012
:1014500070E09BDF813021F0CC24DD24760119C0BF
:10146000C40140E050E060E070E02EEB31E000E1CC
:1014700010E014D1892B09F0C6C08D81882309F4AE
:10148000C5C0C984DA84EB84FC84C401B701A60119
:101490007CDF833009F4B7C0882309F0B7C0CE01E0
:1014A0000196B701A6012DE030E004E210E0F6D08D
:1014B000892B09F0A8C08A859B85BC0180E090E05B
:1014C000611571058105910521F4688D798D8A8DED
:1014D0009B8D2C8130E040E050E07ED23B014C01FE
:1014E0008A819B81A0E0B0E0C80ED91EEA1EFB1ED7
:1014F000F501C286D386E486F586898182832D81B3
:101500003E81358324838F8198857C0100E010E043
:10151000E114F1040105110521F4EC88FD880E8920
:101520001F898A819B81A0E0B0E0E81AF90A0A0BC2
:101530001B0BE618F70808091909B4E0369527953A
:10154000BA95E1F7C901A0E0B0E0E81AF90A0A0B80
:101550001B0BF501228130E040E050E0C801B701EB
:1015600060D22E5F3F4F4F4F5F4FF5012683378389
:1015700040875187273FFFE03F07F0E04F07F0E04B
:101580005F0710F481E001C082E0275F3F4F4040D9
:10159000504008F083E0F5018083833029F488A16E
:1015A00099A1AAA1BBA109C0F50182859385A48553
:1015B000B585860D971DA81DB91D86879787A08BB9
:1015C000B18BF50184819581A4E096958795AA95C4
:1015D000E1F7A0E0B0E02285338544855585820F90
:1015E000931FA41FB51F860D971DA81DB91D828BC3
:1015F000938BA48BB58B1182B0926300A092620092
:1016000020E030E005C021E030E002C027E030E01B
:10161000C901A496EEE047C2DF92EF92FF920F93CA
:101620001F93D82E7A018B0187FF0AC087E740E01D
:1016300050E060E070E0F0DF823050F58FE7D822B4
:10164000C09A19D5C09817D58D2D29D5812F9927E6
:10165000AA27BB2724D5C801AA27BB2720D5BB278B
:10166000A12F902F8F2D1BD58E2D19D580E4D81644
:1016700011F485E906C088E4D81611F487E801C0A2
:1016800081E00DD51AE0F7D487FF02C01150D9F7D9
:101690001F910F91FF90EF90DF900895A0E0B0E0D0
:1016A000E3E5FBE0EAC16C0179018091BD0183FDB6
:1016B00007C039E0440F551F661F771F3A95D1F7D1
:1016C00081E5AADF882389F4C0E3D5E7D4D48F3F2E
:1016D00019F42197D9F709C08E3F39F4C601B70133
:1016E000A801EAD400E010E002C001E010E0C09AD6
:1016F000C2D4C801CDB7DEB7E8E0DBC1A4E0B0E0FA
:10170000E3E8FBE0BAC181E081BB88E08DB90AE083
:1017100010E0B1D401501040E1F7C09808E512E0A4
:10172000AAD401501040E1F780E440E050E060E0CE
:1017300070E072DF813009F05EC088E44AEA51E06F
:1017400060E070E069DF8130B1F56E010894C11C82
:10175000D11C76018E010B5F1F4F8DD4F701819351
:101760007F01E017F107C9F78B81813009F043C091
:101770008C818A3A09F03FC008EA11E603C00150A3
:101780001040C9F189EE40E050E060E070E444DFD1
:101790008823A9F73CC06FD4F60181936F01EE1541
:1017A000FF05C9F7898186FD03C0E4E0FE2E24C051
:1017B0007CE0F72E21C089EE40E050E060E070E070
:1017C0002BDF823028F061E4E62EFF24F39404C07E
:1017D00059EEE52E42E0F42E08EA11E603C001506E
:1017E000104049F08E2D40E050E060E070E014DFE2
:1017F0008823A9F716C0FF24F092BD01C09A3BD4FC
:1018000080E0FF2009F481E02496E8E052C18AE7F5
:1018100040E050E060E070E0FFDE882309F4BBCFD9
:10182000EACF80E540E052E060E070E0F5DE88233A
:1018300011F7E2CFDC98DE988093BE018AB38F7AED
:101840008ABB88EA8DB980EF8EB908951F920F92F6
:101850000FB60F9211248F931092C1011092C00104
:10186000D698CC9B02C0CE9BFCCFCE9902C088EE0E
:1018700001C088EB8DB980EF8EB98F910F900FBEAC
:101880000F901F9018951F920F920FB60F92112470
:101890002F933F938F939F93EF93FF938091C0017A
:1018A0009091C1018230910581F18330910530F42E
:1018B000009779F0019709F084C036C08430910513
:1018C00009F451C08430910548F1059709F079C0B9
:1018D00053C08FB1882359F02FB1269530E0809105
:1018E000BE01992787FD909528173907D1F4789B79
:1018F00003C081E090E004C01092650084E090E0B5
:101900009093C1018093C00158C0DE9883E090E0BD
:101910009093C1018093C001D69851C08FB18823A4
:1019200019F088EA8DB926C090916400993074F45A
:10193000E92FFF27E7FDF095EE0FFF1FEE53FE4F57
:101940000190F081E02D80818FB901C01FB89F5FA9
:101950009093640082E090E09093C1018093C00175
:10196000D69ADE9A07C085E090E09093C1018093FB
:10197000C001D69880E724C084E090E09093C10134
:101980008093C00180916500882339F48FB18093E2
:10199000640081E08093650010C0E0916400E9304C
:1019A00064F48FB1FF27E7FDF095EE0FFF1FEE53B4
:1019B000FE4F0190F081E02D80831FB8D69A8EE70C
:1019C0008EB9FF91EF919F918F913F912F910F9041
:1019D0000FBE0F901F901895FF27EE27BB27AA2751
:1019E00060FF04C0A20FB31FE41FF51F220F331FB7
:1019F000441F551F969587957795679589F70097AA
:101A0000760771F7CF01BD010895991B79E004C0F5
:101A1000991F961708F0961B881F7A95C9F780952D
:101A20000895A1E21A2EAA1BBB1BFD010DC0AA1F1F
:101A3000BB1FEE1FFF1FA217B307E407F50720F037
:101A4000A21BB30BE40BF50B661F771F881F991FB2
:101A50001A9469F760957095809590959B01AC01FB
:101A6000BD01CF0108952F923F924F925F926F92E6
:101A70007F928F929F92AF92BF92CF92DF92EF921E
:101A8000FF920F931F93CF93DF93CDB7DEB7CA1B9F
:101A9000DB0B0FB6F894DEBF0FBECDBF09942A88CA
:101AA000398848885F846E847D848C849B84AA8472
:101AB000B984C884DF80EE80FD800C811B81AA81FF
:101AC000B981CE0FD11D0FB6F894DEBF0FBECDBFCA
:101AD000ED010895FB01DC0105900D920020E1F776
:061AE0000895F894FFCF09
:02000004008278
:03000000C1DBFF62
:00000001FF
