:100000000EC01DC01CC01BC01AC019C018C017C02C
:1000100016C015C014C013C012C011C010C01124E6
:100020001FBECFE5D1E0DEBFCDBF10E0A0E6B0E05F
:1000300001C01D92A436B107E1F702D0A7C0E0CFFE
:1000400080E886BD16BC88E087BB93D02DD0813078
:1000500011F4C39AFBCFC398F9CF81E087B9C29A54
:10006000C49887B3846187BB85E58A95F1F7BC980E
:1000700082E287B9369A349BFECF349A95B181E0FB
:1000800087B9C298C49A87B3846187BB85E58A958E
:10009000F1F7BC98C49882E287B9369A349BFECFB8
:1000A000349A85B1891B0895EF92FF921F93CF93E5
:1000B000DF9310E0C0E0D0E068ECE62EF12CCDDF5D
:1000C000C80FD11DC7010197F1F71F5F1031B9F7B4
:1000D0002091620030916300C90154E096958795A4
:1000E0005A95E1F7AE01481B590B809160008823B7
:1000F00001F54B30510544F081E08093600010928F
:10010000610022E030E02EC0C90146E09695879557
:100110004A95E1F7281B390BD695C795D695C79513
:100120002C0F3D1F309363002093620020E030E0ED
:1001300019C0483051052CF41092600023E030E0E3
:1001400011C080916100853040F087DF109262001D
:100150008093630024E030E005C08F5F80936100EE
:1001600021E030E0C901DF91CF911F91FF90EF9026
:10017000089580B58E7F80BD85E886B96EDF1092C8
:10018000620080936300109260000895F894FFCF9E
:00000001FF
